{
	"contracts/TokenSale.sol": {
		"TokenSale": {
			"abi": [
				{
					"inputs": [
						{
							"internalType": "address",
							"name": "_token",
							"type": "address"
						}
					],
					"stateMutability": "nonpayable",
					"type": "constructor"
				},
				{
					"inputs": [],
					"name": "purchaseFood",
					"outputs": [],
					"stateMutability": "payable",
					"type": "function"
				},
				{
					"inputs": [],
					"name": "token",
					"outputs": [
						{
							"internalType": "contract ERC20",
							"name": "",
							"type": "address"
						}
					],
					"stateMutability": "view",
					"type": "function"
				},
				{
					"inputs": [],
					"name": "tokenOwner",
					"outputs": [
						{
							"internalType": "address",
							"name": "",
							"type": "address"
						}
					],
					"stateMutability": "view",
					"type": "function"
				},
				{
					"inputs": [],
					"name": "tokenPriceInWei",
					"outputs": [
						{
							"internalType": "uint256",
							"name": "",
							"type": "uint256"
						}
					],
					"stateMutability": "view",
					"type": "function"
				}
			],
			"devdoc": {
				"kind": "dev",
				"methods": {},
				"version": 1
			},
			"evm": {
				"assembly": "    /* \"contracts/TokenSale.sol\":269:897  contract TokenSale{... */\n  mstore(0x40, 0x80)\n    /* \"contracts/TokenSale.sol\":379:471  constructor(address _token){... */\n  callvalue\n  dup1\n  iszero\n  tag_1\n  jumpi\n  0x00\n  dup1\n  revert\ntag_1:\n  pop\n  mload(0x40)\n  sub(codesize, bytecodeSize)\n  dup1\n  bytecodeSize\n  dup4\n  codecopy\n  dup2\n  dup2\n  add\n  0x40\n  mstore\n  dup2\n  add\n  swap1\n  tag_2\n  swap2\n  swap1\n  tag_3\n  jump\t// in\ntag_2:\n    /* \"contracts/TokenSale.sol\":428:438  msg.sender */\n  caller\n    /* \"contracts/TokenSale.sol\":415:425  tokenOwner */\n  0x02\n  0x00\n    /* \"contracts/TokenSale.sol\":415:438  tokenOwner = msg.sender */\n  0x0100\n  exp\n  dup2\n  sload\n  dup2\n  0xffffffffffffffffffffffffffffffffffffffff\n  mul\n  not\n  and\n  swap1\n  dup4\n  0xffffffffffffffffffffffffffffffffffffffff\n  and\n  mul\n  or\n  swap1\n  sstore\n  pop\n    /* \"contracts/TokenSale.sol\":459:465  _token */\n  dup1\n    /* \"contracts/TokenSale.sol\":445:450  token */\n  0x01\n  0x00\n    /* \"contracts/TokenSale.sol\":445:466  token = ERC20(_token) */\n  0x0100\n  exp\n  dup2\n  sload\n  dup2\n  0xffffffffffffffffffffffffffffffffffffffff\n  mul\n  not\n  and\n  swap1\n  dup4\n  0xffffffffffffffffffffffffffffffffffffffff\n  and\n  mul\n  or\n  swap1\n  sstore\n  pop\n    /* \"contracts/TokenSale.sol\":379:471  constructor(address _token){... */\n  pop\n    /* \"contracts/TokenSale.sol\":269:897  contract TokenSale{... */\n  jump(tag_6)\n    /* \"#utility.yul\":88:205   */\ntag_8:\n    /* \"#utility.yul\":197:198   */\n  0x00\n    /* \"#utility.yul\":194:195   */\n  dup1\n    /* \"#utility.yul\":187:199   */\n  revert\n    /* \"#utility.yul\":334:460   */\ntag_10:\n    /* \"#utility.yul\":371:378   */\n  0x00\n    /* \"#utility.yul\":411:453   */\n  0xffffffffffffffffffffffffffffffffffffffff\n    /* \"#utility.yul\":404:409   */\n  dup3\n    /* \"#utility.yul\":400:454   */\n  and\n    /* \"#utility.yul\":389:454   */\n  swap1\n  pop\n    /* \"#utility.yul\":334:460   */\n  swap2\n  swap1\n  pop\n  jump\t// out\n    /* \"#utility.yul\":466:562   */\ntag_11:\n    /* \"#utility.yul\":503:510   */\n  0x00\n    /* \"#utility.yul\":532:556   */\n  tag_20\n    /* \"#utility.yul\":550:555   */\n  dup3\n    /* \"#utility.yul\":532:556   */\n  tag_10\n  jump\t// in\ntag_20:\n    /* \"#utility.yul\":521:556   */\n  swap1\n  pop\n    /* \"#utility.yul\":466:562   */\n  swap2\n  swap1\n  pop\n  jump\t// out\n    /* \"#utility.yul\":568:690   */\ntag_12:\n    /* \"#utility.yul\":641:665   */\n  tag_22\n    /* \"#utility.yul\":659:664   */\n  dup2\n    /* \"#utility.yul\":641:665   */\n  tag_11\n  jump\t// in\ntag_22:\n    /* \"#utility.yul\":634:639   */\n  dup2\n    /* \"#utility.yul\":631:666   */\n  eq\n    /* \"#utility.yul\":621:684   */\n  tag_23\n  jumpi\n    /* \"#utility.yul\":680:681   */\n  0x00\n    /* \"#utility.yul\":677:678   */\n  dup1\n    /* \"#utility.yul\":670:682   */\n  revert\n    /* \"#utility.yul\":621:684   */\ntag_23:\n    /* \"#utility.yul\":568:690   */\n  pop\n  jump\t// out\n    /* \"#utility.yul\":696:839   */\ntag_13:\n    /* \"#utility.yul\":753:758   */\n  0x00\n    /* \"#utility.yul\":784:790   */\n  dup2\n    /* \"#utility.yul\":778:791   */\n  mload\n    /* \"#utility.yul\":769:791   */\n  swap1\n  pop\n    /* \"#utility.yul\":800:833   */\n  tag_25\n    /* \"#utility.yul\":827:832   */\n  dup2\n    /* \"#utility.yul\":800:833   */\n  tag_12\n  jump\t// in\ntag_25:\n    /* \"#utility.yul\":696:839   */\n  swap3\n  swap2\n  pop\n  pop\n  jump\t// out\n    /* \"#utility.yul\":845:1196   */\ntag_3:\n    /* \"#utility.yul\":915:921   */\n  0x00\n    /* \"#utility.yul\":964:966   */\n  0x20\n    /* \"#utility.yul\":952:961   */\n  dup3\n    /* \"#utility.yul\":943:950   */\n  dup5\n    /* \"#utility.yul\":939:962   */\n  sub\n    /* \"#utility.yul\":935:967   */\n  slt\n    /* \"#utility.yul\":932:1051   */\n  iszero\n  tag_27\n  jumpi\n    /* \"#utility.yul\":970:1049   */\n  tag_28\n  tag_8\n  jump\t// in\ntag_28:\n    /* \"#utility.yul\":932:1051   */\ntag_27:\n    /* \"#utility.yul\":1090:1091   */\n  0x00\n    /* \"#utility.yul\":1115:1179   */\n  tag_29\n    /* \"#utility.yul\":1171:1178   */\n  dup5\n    /* \"#utility.yul\":1162:1168   */\n  dup3\n    /* \"#utility.yul\":1151:1160   */\n  dup6\n    /* \"#utility.yul\":1147:1169   */\n  add\n    /* \"#utility.yul\":1115:1179   */\n  tag_13\n  jump\t// in\ntag_29:\n    /* \"#utility.yul\":1105:1179   */\n  swap2\n  pop\n    /* \"#utility.yul\":1061:1189   */\n  pop\n    /* \"#utility.yul\":845:1196   */\n  swap3\n  swap2\n  pop\n  pop\n  jump\t// out\n    /* \"contracts/TokenSale.sol\":269:897  contract TokenSale{... */\ntag_6:\n  dataSize(sub_0)\n  dup1\n  dataOffset(sub_0)\n  0x00\n  codecopy\n  0x00\n  return\nstop\n\nsub_0: assembly {\n        /* \"contracts/TokenSale.sol\":269:897  contract TokenSale{... */\n      mstore(0x40, 0x80)\n      jumpi(tag_1, lt(calldatasize, 0x04))\n      shr(0xe0, calldataload(0x00))\n      dup1\n      0x0f1f0c98\n      eq\n      tag_2\n      jumpi\n      dup1\n      0x2f8de810\n      eq\n      tag_3\n      jumpi\n      dup1\n      0xa3e67610\n      eq\n      tag_4\n      jumpi\n      dup1\n      0xfc0c546a\n      eq\n      tag_5\n      jumpi\n    tag_1:\n      0x00\n      dup1\n      revert\n        /* \"contracts/TokenSale.sol\":475:888  function purchaseFood() public  payable {... */\n    tag_2:\n      tag_6\n      tag_7\n      jump\t// in\n    tag_6:\n      stop\n        /* \"contracts/TokenSale.sol\":292:320  uint public  tokenPriceInWei */\n    tag_3:\n      callvalue\n      dup1\n      iszero\n      tag_8\n      jumpi\n      0x00\n      dup1\n      revert\n    tag_8:\n      pop\n      tag_9\n      tag_10\n      jump\t// in\n    tag_9:\n      mload(0x40)\n      tag_11\n      swap2\n      swap1\n      tag_12\n      jump\t// in\n    tag_11:\n      mload(0x40)\n      dup1\n      swap2\n      sub\n      swap1\n      return\n        /* \"contracts/TokenSale.sol\":348:373  address public tokenOwner */\n    tag_4:\n      callvalue\n      dup1\n      iszero\n      tag_13\n      jumpi\n      0x00\n      dup1\n      revert\n    tag_13:\n      pop\n      tag_14\n      tag_15\n      jump\t// in\n    tag_14:\n      mload(0x40)\n      tag_16\n      swap2\n      swap1\n      tag_17\n      jump\t// in\n    tag_16:\n      mload(0x40)\n      dup1\n      swap2\n      sub\n      swap1\n      return\n        /* \"contracts/TokenSale.sol\":326:344  ERC20 public token */\n    tag_5:\n      callvalue\n      dup1\n      iszero\n      tag_18\n      jumpi\n      0x00\n      dup1\n      revert\n    tag_18:\n      pop\n      tag_19\n      tag_20\n      jump\t// in\n    tag_19:\n      mload(0x40)\n      tag_21\n      swap2\n      swap1\n      tag_22\n      jump\t// in\n    tag_21:\n      mload(0x40)\n      dup1\n      swap2\n      sub\n      swap1\n      return\n        /* \"contracts/TokenSale.sol\":475:888  function purchaseFood() public  payable {... */\n    tag_7:\n        /* \"contracts/TokenSale.sol\":541:556  tokenPriceInWei */\n      sload(0x00)\n        /* \"contracts/TokenSale.sol\":530:539  msg.value */\n      callvalue\n        /* \"contracts/TokenSale.sol\":530:556  msg.value>=tokenPriceInWei */\n      lt\n      iszero\n        /* \"contracts/TokenSale.sol\":522:581  require(msg.value>=tokenPriceInWei,\"Not enouhg money sent\") */\n      tag_24\n      jumpi\n      mload(0x40)\n      0x08c379a000000000000000000000000000000000000000000000000000000000\n      dup2\n      mstore\n      0x04\n      add\n      tag_25\n      swap1\n      tag_26\n      jump\t// in\n    tag_25:\n      mload(0x40)\n      dup1\n      swap2\n      sub\n      swap1\n      revert\n    tag_24:\n        /* \"contracts/TokenSale.sol\":588:609  uint tokensToTransfer */\n      0x00\n        /* \"contracts/TokenSale.sol\":624:639  tokenPriceInWei */\n      dup1\n      sload\n        /* \"contracts/TokenSale.sol\":612:621  msg.value */\n      callvalue\n        /* \"contracts/TokenSale.sol\":612:639  msg.value / tokenPriceInWei */\n      tag_27\n      swap2\n      swap1\n      tag_28\n      jump\t// in\n    tag_27:\n        /* \"contracts/TokenSale.sol\":588:639  uint tokensToTransfer = msg.value / tokenPriceInWei */\n      swap1\n      pop\n        /* \"contracts/TokenSale.sol\":646:660  uint remainder */\n      0x00\n        /* \"contracts/TokenSale.sol\":694:709  tokenPriceInWei */\n      dup1\n      sload\n        /* \"contracts/TokenSale.sol\":675:691  tokensToTransfer */\n      dup3\n        /* \"contracts/TokenSale.sol\":675:709  tokensToTransfer * tokenPriceInWei */\n      tag_29\n      swap2\n      swap1\n      tag_30\n      jump\t// in\n    tag_29:\n        /* \"contracts/TokenSale.sol\":663:672  msg.value */\n      callvalue\n        /* \"contracts/TokenSale.sol\":663:709  msg.value - tokensToTransfer * tokenPriceInWei */\n      tag_31\n      swap2\n      swap1\n      tag_32\n      jump\t// in\n    tag_31:\n        /* \"contracts/TokenSale.sol\":646:709  uint remainder = msg.value - tokensToTransfer * tokenPriceInWei */\n      swap1\n      pop\n        /* \"contracts/TokenSale.sol\":716:721  token */\n      0x01\n      0x00\n      swap1\n      sload\n      swap1\n      0x0100\n      exp\n      swap1\n      div\n      0xffffffffffffffffffffffffffffffffffffffff\n      and\n        /* \"contracts/TokenSale.sol\":716:734  token.transferFrom */\n      0xffffffffffffffffffffffffffffffffffffffff\n      and\n      0x23b872dd\n        /* \"contracts/TokenSale.sol\":735:745  tokenOwner */\n      0x02\n      0x00\n      swap1\n      sload\n      swap1\n      0x0100\n      exp\n      swap1\n      div\n      0xffffffffffffffffffffffffffffffffffffffff\n      and\n        /* \"contracts/TokenSale.sol\":747:757  msg.sender */\n      caller\n        /* \"contracts/TokenSale.sol\":784:789  token */\n      0x01\n      0x00\n      swap1\n      sload\n      swap1\n      0x0100\n      exp\n      swap1\n      div\n      0xffffffffffffffffffffffffffffffffffffffff\n      and\n        /* \"contracts/TokenSale.sol\":784:798  token.decimals */\n      0xffffffffffffffffffffffffffffffffffffffff\n      and\n      0x313ce567\n        /* \"contracts/TokenSale.sol\":784:800  token.decimals() */\n      mload(0x40)\n      dup2\n      0xffffffff\n      and\n      0xe0\n      shl\n      dup2\n      mstore\n      0x04\n      add\n      0x20\n      mload(0x40)\n      dup1\n      dup4\n      sub\n      dup2\n      dup7\n      gas\n      staticcall\n      iszero\n      dup1\n      iszero\n      tag_34\n      jumpi\n      returndatasize\n      0x00\n      dup1\n      returndatacopy\n      revert(0x00, returndatasize)\n    tag_34:\n      pop\n      pop\n      pop\n      pop\n      mload(0x40)\n      returndatasize\n      not(0x1f)\n      0x1f\n      dup3\n      add\n      and\n      dup3\n      add\n      dup1\n      0x40\n      mstore\n      pop\n      dup2\n      add\n      swap1\n      tag_35\n      swap2\n      swap1\n      tag_36\n      jump\t// in\n    tag_35:\n        /* \"contracts/TokenSale.sol\":778:780  10 */\n      0x0a\n        /* \"contracts/TokenSale.sol\":778:800  10 ** token.decimals() */\n      tag_37\n      swap2\n      swap1\n      tag_38\n      jump\t// in\n    tag_37:\n        /* \"contracts/TokenSale.sol\":759:775  tokensToTransfer */\n      dup7\n        /* \"contracts/TokenSale.sol\":759:800  tokensToTransfer * 10 ** token.decimals() */\n      tag_39\n      swap2\n      swap1\n      tag_30\n      jump\t// in\n    tag_39:\n        /* \"contracts/TokenSale.sol\":716:801  token.transferFrom(tokenOwner, msg.sender, tokensToTransfer * 10 ** token.decimals()) */\n      mload(0x40)\n      dup5\n      0xffffffff\n      and\n      0xe0\n      shl\n      dup2\n      mstore\n      0x04\n      add\n      tag_40\n      swap4\n      swap3\n      swap2\n      swap1\n      tag_41\n      jump\t// in\n    tag_40:\n      0x20\n      mload(0x40)\n      dup1\n      dup4\n      sub\n      dup2\n      0x00\n      dup8\n      gas\n      call\n      iszero\n      dup1\n      iszero\n      tag_43\n      jumpi\n      returndatasize\n      0x00\n      dup1\n      returndatacopy\n      revert(0x00, returndatasize)\n    tag_43:\n      pop\n      pop\n      pop\n      pop\n      mload(0x40)\n      returndatasize\n      not(0x1f)\n      0x1f\n      dup3\n      add\n      and\n      dup3\n      add\n      dup1\n      0x40\n      mstore\n      pop\n      dup2\n      add\n      swap1\n      tag_44\n      swap2\n      swap1\n      tag_45\n      jump\t// in\n    tag_44:\n      pop\n        /* \"contracts/TokenSale.sol\":816:826  msg.sender */\n      caller\n        /* \"contracts/TokenSale.sol\":808:836  payable(msg.sender).transfer */\n      0xffffffffffffffffffffffffffffffffffffffff\n      and\n        /* \"contracts/TokenSale.sol\":808:847  payable(msg.sender).transfer(remainder) */\n      0x08fc\n        /* \"contracts/TokenSale.sol\":837:846  remainder */\n      dup3\n        /* \"contracts/TokenSale.sol\":808:847  payable(msg.sender).transfer(remainder) */\n      swap1\n      dup2\n      iszero\n      mul\n      swap1\n      mload(0x40)\n      0x00\n      mload(0x40)\n      dup1\n      dup4\n      sub\n      dup2\n      dup6\n      dup9\n      dup9\n      call\n      swap4\n      pop\n      pop\n      pop\n      pop\n      iszero\n      dup1\n      iszero\n      tag_47\n      jumpi\n      returndatasize\n      0x00\n      dup1\n      returndatacopy\n      revert(0x00, returndatasize)\n    tag_47:\n      pop\n        /* \"contracts/TokenSale.sol\":515:888  {... */\n      pop\n      pop\n        /* \"contracts/TokenSale.sol\":475:888  function purchaseFood() public  payable {... */\n      jump\t// out\n        /* \"contracts/TokenSale.sol\":292:320  uint public  tokenPriceInWei */\n    tag_10:\n      sload(0x00)\n      dup2\n      jump\t// out\n        /* \"contracts/TokenSale.sol\":348:373  address public tokenOwner */\n    tag_15:\n      0x02\n      0x00\n      swap1\n      sload\n      swap1\n      0x0100\n      exp\n      swap1\n      div\n      0xffffffffffffffffffffffffffffffffffffffff\n      and\n      dup2\n      jump\t// out\n        /* \"contracts/TokenSale.sol\":326:344  ERC20 public token */\n    tag_20:\n      0x01\n      0x00\n      swap1\n      sload\n      swap1\n      0x0100\n      exp\n      swap1\n      div\n      0xffffffffffffffffffffffffffffffffffffffff\n      and\n      dup2\n      jump\t// out\n        /* \"#utility.yul\":7:84   */\n    tag_48:\n        /* \"#utility.yul\":44:51   */\n      0x00\n        /* \"#utility.yul\":73:78   */\n      dup2\n        /* \"#utility.yul\":62:78   */\n      swap1\n      pop\n        /* \"#utility.yul\":7:84   */\n      swap2\n      swap1\n      pop\n      jump\t// out\n        /* \"#utility.yul\":90:208   */\n    tag_49:\n        /* \"#utility.yul\":177:201   */\n      tag_78\n        /* \"#utility.yul\":195:200   */\n      dup2\n        /* \"#utility.yul\":177:201   */\n      tag_48\n      jump\t// in\n    tag_78:\n        /* \"#utility.yul\":172:175   */\n      dup3\n        /* \"#utility.yul\":165:202   */\n      mstore\n        /* \"#utility.yul\":90:208   */\n      pop\n      pop\n      jump\t// out\n        /* \"#utility.yul\":214:436   */\n    tag_12:\n        /* \"#utility.yul\":307:311   */\n      0x00\n        /* \"#utility.yul\":345:347   */\n      0x20\n        /* \"#utility.yul\":334:343   */\n      dup3\n        /* \"#utility.yul\":330:348   */\n      add\n        /* \"#utility.yul\":322:348   */\n      swap1\n      pop\n        /* \"#utility.yul\":358:429   */\n      tag_80\n        /* \"#utility.yul\":426:427   */\n      0x00\n        /* \"#utility.yul\":415:424   */\n      dup4\n        /* \"#utility.yul\":411:428   */\n      add\n        /* \"#utility.yul\":402:408   */\n      dup5\n        /* \"#utility.yul\":358:429   */\n      tag_49\n      jump\t// in\n    tag_80:\n        /* \"#utility.yul\":214:436   */\n      swap3\n      swap2\n      pop\n      pop\n      jump\t// out\n        /* \"#utility.yul\":442:568   */\n    tag_50:\n        /* \"#utility.yul\":479:486   */\n      0x00\n        /* \"#utility.yul\":519:561   */\n      0xffffffffffffffffffffffffffffffffffffffff\n        /* \"#utility.yul\":512:517   */\n      dup3\n        /* \"#utility.yul\":508:562   */\n      and\n        /* \"#utility.yul\":497:562   */\n      swap1\n      pop\n        /* \"#utility.yul\":442:568   */\n      swap2\n      swap1\n      pop\n      jump\t// out\n        /* \"#utility.yul\":574:670   */\n    tag_51:\n        /* \"#utility.yul\":611:618   */\n      0x00\n        /* \"#utility.yul\":640:664   */\n      tag_83\n        /* \"#utility.yul\":658:663   */\n      dup3\n        /* \"#utility.yul\":640:664   */\n      tag_50\n      jump\t// in\n    tag_83:\n        /* \"#utility.yul\":629:664   */\n      swap1\n      pop\n        /* \"#utility.yul\":574:670   */\n      swap2\n      swap1\n      pop\n      jump\t// out\n        /* \"#utility.yul\":676:794   */\n    tag_52:\n        /* \"#utility.yul\":763:787   */\n      tag_85\n        /* \"#utility.yul\":781:786   */\n      dup2\n        /* \"#utility.yul\":763:787   */\n      tag_51\n      jump\t// in\n    tag_85:\n        /* \"#utility.yul\":758:761   */\n      dup3\n        /* \"#utility.yul\":751:788   */\n      mstore\n        /* \"#utility.yul\":676:794   */\n      pop\n      pop\n      jump\t// out\n        /* \"#utility.yul\":800:1022   */\n    tag_17:\n        /* \"#utility.yul\":893:897   */\n      0x00\n        /* \"#utility.yul\":931:933   */\n      0x20\n        /* \"#utility.yul\":920:929   */\n      dup3\n        /* \"#utility.yul\":916:934   */\n      add\n        /* \"#utility.yul\":908:934   */\n      swap1\n      pop\n        /* \"#utility.yul\":944:1015   */\n      tag_87\n        /* \"#utility.yul\":1012:1013   */\n      0x00\n        /* \"#utility.yul\":1001:1010   */\n      dup4\n        /* \"#utility.yul\":997:1014   */\n      add\n        /* \"#utility.yul\":988:994   */\n      dup5\n        /* \"#utility.yul\":944:1015   */\n      tag_52\n      jump\t// in\n    tag_87:\n        /* \"#utility.yul\":800:1022   */\n      swap3\n      swap2\n      pop\n      pop\n      jump\t// out\n        /* \"#utility.yul\":1028:1088   */\n    tag_53:\n        /* \"#utility.yul\":1056:1059   */\n      0x00\n        /* \"#utility.yul\":1077:1082   */\n      dup2\n        /* \"#utility.yul\":1070:1082   */\n      swap1\n      pop\n        /* \"#utility.yul\":1028:1088   */\n      swap2\n      swap1\n      pop\n      jump\t// out\n        /* \"#utility.yul\":1094:1236   */\n    tag_54:\n        /* \"#utility.yul\":1144:1153   */\n      0x00\n        /* \"#utility.yul\":1177:1230   */\n      tag_90\n        /* \"#utility.yul\":1195:1229   */\n      tag_91\n        /* \"#utility.yul\":1204:1228   */\n      tag_92\n        /* \"#utility.yul\":1222:1227   */\n      dup5\n        /* \"#utility.yul\":1204:1228   */\n      tag_50\n      jump\t// in\n    tag_92:\n        /* \"#utility.yul\":1195:1229   */\n      tag_53\n      jump\t// in\n    tag_91:\n        /* \"#utility.yul\":1177:1230   */\n      tag_50\n      jump\t// in\n    tag_90:\n        /* \"#utility.yul\":1164:1230   */\n      swap1\n      pop\n        /* \"#utility.yul\":1094:1236   */\n      swap2\n      swap1\n      pop\n      jump\t// out\n        /* \"#utility.yul\":1242:1368   */\n    tag_55:\n        /* \"#utility.yul\":1292:1301   */\n      0x00\n        /* \"#utility.yul\":1325:1362   */\n      tag_94\n        /* \"#utility.yul\":1356:1361   */\n      dup3\n        /* \"#utility.yul\":1325:1362   */\n      tag_54\n      jump\t// in\n    tag_94:\n        /* \"#utility.yul\":1312:1362   */\n      swap1\n      pop\n        /* \"#utility.yul\":1242:1368   */\n      swap2\n      swap1\n      pop\n      jump\t// out\n        /* \"#utility.yul\":1374:1512   */\n    tag_56:\n        /* \"#utility.yul\":1436:1445   */\n      0x00\n        /* \"#utility.yul\":1469:1506   */\n      tag_96\n        /* \"#utility.yul\":1500:1505   */\n      dup3\n        /* \"#utility.yul\":1469:1506   */\n      tag_55\n      jump\t// in\n    tag_96:\n        /* \"#utility.yul\":1456:1506   */\n      swap1\n      pop\n        /* \"#utility.yul\":1374:1512   */\n      swap2\n      swap1\n      pop\n      jump\t// out\n        /* \"#utility.yul\":1518:1673   */\n    tag_57:\n        /* \"#utility.yul\":1617:1666   */\n      tag_98\n        /* \"#utility.yul\":1660:1665   */\n      dup2\n        /* \"#utility.yul\":1617:1666   */\n      tag_56\n      jump\t// in\n    tag_98:\n        /* \"#utility.yul\":1612:1615   */\n      dup3\n        /* \"#utility.yul\":1605:1667   */\n      mstore\n        /* \"#utility.yul\":1518:1673   */\n      pop\n      pop\n      jump\t// out\n        /* \"#utility.yul\":1679:1925   */\n    tag_22:\n        /* \"#utility.yul\":1784:1788   */\n      0x00\n        /* \"#utility.yul\":1822:1824   */\n      0x20\n        /* \"#utility.yul\":1811:1820   */\n      dup3\n        /* \"#utility.yul\":1807:1825   */\n      add\n        /* \"#utility.yul\":1799:1825   */\n      swap1\n      pop\n        /* \"#utility.yul\":1835:1918   */\n      tag_100\n        /* \"#utility.yul\":1915:1916   */\n      0x00\n        /* \"#utility.yul\":1904:1913   */\n      dup4\n        /* \"#utility.yul\":1900:1917   */\n      add\n        /* \"#utility.yul\":1891:1897   */\n      dup5\n        /* \"#utility.yul\":1835:1918   */\n      tag_57\n      jump\t// in\n    tag_100:\n        /* \"#utility.yul\":1679:1925   */\n      swap3\n      swap2\n      pop\n      pop\n      jump\t// out\n        /* \"#utility.yul\":1931:2100   */\n    tag_58:\n        /* \"#utility.yul\":2015:2026   */\n      0x00\n        /* \"#utility.yul\":2049:2055   */\n      dup3\n        /* \"#utility.yul\":2044:2047   */\n      dup3\n        /* \"#utility.yul\":2037:2056   */\n      mstore\n        /* \"#utility.yul\":2089:2093   */\n      0x20\n        /* \"#utility.yul\":2084:2087   */\n      dup3\n        /* \"#utility.yul\":2080:2094   */\n      add\n        /* \"#utility.yul\":2065:2094   */\n      swap1\n      pop\n        /* \"#utility.yul\":1931:2100   */\n      swap3\n      swap2\n      pop\n      pop\n      jump\t// out\n        /* \"#utility.yul\":2106:2277   */\n    tag_59:\n        /* \"#utility.yul\":2246:2269   */\n      0x4e6f7420656e6f756867206d6f6e65792073656e740000000000000000000000\n        /* \"#utility.yul\":2242:2243   */\n      0x00\n        /* \"#utility.yul\":2234:2240   */\n      dup3\n        /* \"#utility.yul\":2230:2244   */\n      add\n        /* \"#utility.yul\":2223:2270   */\n      mstore\n        /* \"#utility.yul\":2106:2277   */\n      pop\n      jump\t// out\n        /* \"#utility.yul\":2283:2649   */\n    tag_60:\n        /* \"#utility.yul\":2425:2428   */\n      0x00\n        /* \"#utility.yul\":2446:2513   */\n      tag_104\n        /* \"#utility.yul\":2510:2512   */\n      0x15\n        /* \"#utility.yul\":2505:2508   */\n      dup4\n        /* \"#utility.yul\":2446:2513   */\n      tag_58\n      jump\t// in\n    tag_104:\n        /* \"#utility.yul\":2439:2513   */\n      swap2\n      pop\n        /* \"#utility.yul\":2522:2615   */\n      tag_105\n        /* \"#utility.yul\":2611:2614   */\n      dup3\n        /* \"#utility.yul\":2522:2615   */\n      tag_59\n      jump\t// in\n    tag_105:\n        /* \"#utility.yul\":2640:2642   */\n      0x20\n        /* \"#utility.yul\":2635:2638   */\n      dup3\n        /* \"#utility.yul\":2631:2643   */\n      add\n        /* \"#utility.yul\":2624:2643   */\n      swap1\n      pop\n        /* \"#utility.yul\":2283:2649   */\n      swap2\n      swap1\n      pop\n      jump\t// out\n        /* \"#utility.yul\":2655:3074   */\n    tag_26:\n        /* \"#utility.yul\":2821:2825   */\n      0x00\n        /* \"#utility.yul\":2859:2861   */\n      0x20\n        /* \"#utility.yul\":2848:2857   */\n      dup3\n        /* \"#utility.yul\":2844:2862   */\n      add\n        /* \"#utility.yul\":2836:2862   */\n      swap1\n      pop\n        /* \"#utility.yul\":2908:2917   */\n      dup2\n        /* \"#utility.yul\":2902:2906   */\n      dup2\n        /* \"#utility.yul\":2898:2918   */\n      sub\n        /* \"#utility.yul\":2894:2895   */\n      0x00\n        /* \"#utility.yul\":2883:2892   */\n      dup4\n        /* \"#utility.yul\":2879:2896   */\n      add\n        /* \"#utility.yul\":2872:2919   */\n      mstore\n        /* \"#utility.yul\":2936:3067   */\n      tag_107\n        /* \"#utility.yul\":3062:3066   */\n      dup2\n        /* \"#utility.yul\":2936:3067   */\n      tag_60\n      jump\t// in\n    tag_107:\n        /* \"#utility.yul\":2928:3067   */\n      swap1\n      pop\n        /* \"#utility.yul\":2655:3074   */\n      swap2\n      swap1\n      pop\n      jump\t// out\n        /* \"#utility.yul\":3080:3260   */\n    tag_61:\n        /* \"#utility.yul\":3128:3205   */\n      0x4e487b7100000000000000000000000000000000000000000000000000000000\n        /* \"#utility.yul\":3125:3126   */\n      0x00\n        /* \"#utility.yul\":3118:3206   */\n      mstore\n        /* \"#utility.yul\":3225:3229   */\n      0x12\n        /* \"#utility.yul\":3222:3223   */\n      0x04\n        /* \"#utility.yul\":3215:3230   */\n      mstore\n        /* \"#utility.yul\":3249:3253   */\n      0x24\n        /* \"#utility.yul\":3246:3247   */\n      0x00\n        /* \"#utility.yul\":3239:3254   */\n      revert\n        /* \"#utility.yul\":3266:3446   */\n    tag_62:\n        /* \"#utility.yul\":3314:3391   */\n      0x4e487b7100000000000000000000000000000000000000000000000000000000\n        /* \"#utility.yul\":3311:3312   */\n      0x00\n        /* \"#utility.yul\":3304:3392   */\n      mstore\n        /* \"#utility.yul\":3411:3415   */\n      0x11\n        /* \"#utility.yul\":3408:3409   */\n      0x04\n        /* \"#utility.yul\":3401:3416   */\n      mstore\n        /* \"#utility.yul\":3435:3439   */\n      0x24\n        /* \"#utility.yul\":3432:3433   */\n      0x00\n        /* \"#utility.yul\":3425:3440   */\n      revert\n        /* \"#utility.yul\":3452:3637   */\n    tag_28:\n        /* \"#utility.yul\":3492:3493   */\n      0x00\n        /* \"#utility.yul\":3509:3529   */\n      tag_111\n        /* \"#utility.yul\":3527:3528   */\n      dup3\n        /* \"#utility.yul\":3509:3529   */\n      tag_48\n      jump\t// in\n    tag_111:\n        /* \"#utility.yul\":3504:3529   */\n      swap2\n      pop\n        /* \"#utility.yul\":3543:3563   */\n      tag_112\n        /* \"#utility.yul\":3561:3562   */\n      dup4\n        /* \"#utility.yul\":3543:3563   */\n      tag_48\n      jump\t// in\n    tag_112:\n        /* \"#utility.yul\":3538:3563   */\n      swap3\n      pop\n        /* \"#utility.yul\":3582:3583   */\n      dup3\n        /* \"#utility.yul\":3572:3607   */\n      tag_113\n      jumpi\n        /* \"#utility.yul\":3587:3605   */\n      tag_114\n      tag_61\n      jump\t// in\n    tag_114:\n        /* \"#utility.yul\":3572:3607   */\n    tag_113:\n        /* \"#utility.yul\":3629:3630   */\n      dup3\n        /* \"#utility.yul\":3626:3627   */\n      dup3\n        /* \"#utility.yul\":3622:3631   */\n      div\n        /* \"#utility.yul\":3617:3631   */\n      swap1\n      pop\n        /* \"#utility.yul\":3452:3637   */\n      swap3\n      swap2\n      pop\n      pop\n      jump\t// out\n        /* \"#utility.yul\":3643:3991   */\n    tag_30:\n        /* \"#utility.yul\":3683:3690   */\n      0x00\n        /* \"#utility.yul\":3706:3726   */\n      tag_116\n        /* \"#utility.yul\":3724:3725   */\n      dup3\n        /* \"#utility.yul\":3706:3726   */\n      tag_48\n      jump\t// in\n    tag_116:\n        /* \"#utility.yul\":3701:3726   */\n      swap2\n      pop\n        /* \"#utility.yul\":3740:3760   */\n      tag_117\n        /* \"#utility.yul\":3758:3759   */\n      dup4\n        /* \"#utility.yul\":3740:3760   */\n      tag_48\n      jump\t// in\n    tag_117:\n        /* \"#utility.yul\":3735:3760   */\n      swap3\n      pop\n        /* \"#utility.yul\":3928:3929   */\n      dup2\n        /* \"#utility.yul\":3860:3926   */\n      0xffffffffffffffffffffffffffffffffffffffffffffffffffffffffffffffff\n        /* \"#utility.yul\":3856:3930   */\n      div\n        /* \"#utility.yul\":3853:3854   */\n      dup4\n        /* \"#utility.yul\":3850:3931   */\n      gt\n        /* \"#utility.yul\":3845:3846   */\n      dup3\n        /* \"#utility.yul\":3838:3847   */\n      iszero\n        /* \"#utility.yul\":3831:3848   */\n      iszero\n        /* \"#utility.yul\":3827:3932   */\n      and\n        /* \"#utility.yul\":3824:3955   */\n      iszero\n      tag_118\n      jumpi\n        /* \"#utility.yul\":3935:3953   */\n      tag_119\n      tag_62\n      jump\t// in\n    tag_119:\n        /* \"#utility.yul\":3824:3955   */\n    tag_118:\n        /* \"#utility.yul\":3983:3984   */\n      dup3\n        /* \"#utility.yul\":3980:3981   */\n      dup3\n        /* \"#utility.yul\":3976:3985   */\n      mul\n        /* \"#utility.yul\":3965:3985   */\n      swap1\n      pop\n        /* \"#utility.yul\":3643:3991   */\n      swap3\n      swap2\n      pop\n      pop\n      jump\t// out\n        /* \"#utility.yul\":3997:4188   */\n    tag_32:\n        /* \"#utility.yul\":4037:4041   */\n      0x00\n        /* \"#utility.yul\":4057:4077   */\n      tag_121\n        /* \"#utility.yul\":4075:4076   */\n      dup3\n        /* \"#utility.yul\":4057:4077   */\n      tag_48\n      jump\t// in\n    tag_121:\n        /* \"#utility.yul\":4052:4077   */\n      swap2\n      pop\n        /* \"#utility.yul\":4091:4111   */\n      tag_122\n        /* \"#utility.yul\":4109:4110   */\n      dup4\n        /* \"#utility.yul\":4091:4111   */\n      tag_48\n      jump\t// in\n    tag_122:\n        /* \"#utility.yul\":4086:4111   */\n      swap3\n      pop\n        /* \"#utility.yul\":4130:4131   */\n      dup3\n        /* \"#utility.yul\":4127:4128   */\n      dup3\n        /* \"#utility.yul\":4124:4132   */\n      lt\n        /* \"#utility.yul\":4121:4155   */\n      iszero\n      tag_123\n      jumpi\n        /* \"#utility.yul\":4135:4153   */\n      tag_124\n      tag_62\n      jump\t// in\n    tag_124:\n        /* \"#utility.yul\":4121:4155   */\n    tag_123:\n        /* \"#utility.yul\":4180:4181   */\n      dup3\n        /* \"#utility.yul\":4177:4178   */\n      dup3\n        /* \"#utility.yul\":4173:4182   */\n      sub\n        /* \"#utility.yul\":4165:4182   */\n      swap1\n      pop\n        /* \"#utility.yul\":3997:4188   */\n      swap3\n      swap2\n      pop\n      pop\n      jump\t// out\n        /* \"#utility.yul\":4275:4392   */\n    tag_64:\n        /* \"#utility.yul\":4384:4385   */\n      0x00\n        /* \"#utility.yul\":4381:4382   */\n      dup1\n        /* \"#utility.yul\":4374:4386   */\n      revert\n        /* \"#utility.yul\":4521:4607   */\n    tag_66:\n        /* \"#utility.yul\":4556:4563   */\n      0x00\n        /* \"#utility.yul\":4596:4600   */\n      0xff\n        /* \"#utility.yul\":4589:4594   */\n      dup3\n        /* \"#utility.yul\":4585:4601   */\n      and\n        /* \"#utility.yul\":4574:4601   */\n      swap1\n      pop\n        /* \"#utility.yul\":4521:4607   */\n      swap2\n      swap1\n      pop\n      jump\t// out\n        /* \"#utility.yul\":4613:4731   */\n    tag_67:\n        /* \"#utility.yul\":4684:4706   */\n      tag_130\n        /* \"#utility.yul\":4700:4705   */\n      dup2\n        /* \"#utility.yul\":4684:4706   */\n      tag_66\n      jump\t// in\n    tag_130:\n        /* \"#utility.yul\":4677:4682   */\n      dup2\n        /* \"#utility.yul\":4674:4707   */\n      eq\n        /* \"#utility.yul\":4664:4725   */\n      tag_131\n      jumpi\n        /* \"#utility.yul\":4721:4722   */\n      0x00\n        /* \"#utility.yul\":4718:4719   */\n      dup1\n        /* \"#utility.yul\":4711:4723   */\n      revert\n        /* \"#utility.yul\":4664:4725   */\n    tag_131:\n        /* \"#utility.yul\":4613:4731   */\n      pop\n      jump\t// out\n        /* \"#utility.yul\":4737:4876   */\n    tag_68:\n        /* \"#utility.yul\":4792:4797   */\n      0x00\n        /* \"#utility.yul\":4823:4829   */\n      dup2\n        /* \"#utility.yul\":4817:4830   */\n      mload\n        /* \"#utility.yul\":4808:4830   */\n      swap1\n      pop\n        /* \"#utility.yul\":4839:4870   */\n      tag_133\n        /* \"#utility.yul\":4864:4869   */\n      dup2\n        /* \"#utility.yul\":4839:4870   */\n      tag_67\n      jump\t// in\n    tag_133:\n        /* \"#utility.yul\":4737:4876   */\n      swap3\n      swap2\n      pop\n      pop\n      jump\t// out\n        /* \"#utility.yul\":4882:5229   */\n    tag_36:\n        /* \"#utility.yul\":4950:4956   */\n      0x00\n        /* \"#utility.yul\":4999:5001   */\n      0x20\n        /* \"#utility.yul\":4987:4996   */\n      dup3\n        /* \"#utility.yul\":4978:4985   */\n      dup5\n        /* \"#utility.yul\":4974:4997   */\n      sub\n        /* \"#utility.yul\":4970:5002   */\n      slt\n        /* \"#utility.yul\":4967:5086   */\n      iszero\n      tag_135\n      jumpi\n        /* \"#utility.yul\":5005:5084   */\n      tag_136\n      tag_64\n      jump\t// in\n    tag_136:\n        /* \"#utility.yul\":4967:5086   */\n    tag_135:\n        /* \"#utility.yul\":5125:5126   */\n      0x00\n        /* \"#utility.yul\":5150:5212   */\n      tag_137\n        /* \"#utility.yul\":5204:5211   */\n      dup5\n        /* \"#utility.yul\":5195:5201   */\n      dup3\n        /* \"#utility.yul\":5184:5193   */\n      dup6\n        /* \"#utility.yul\":5180:5202   */\n      add\n        /* \"#utility.yul\":5150:5212   */\n      tag_68\n      jump\t// in\n    tag_137:\n        /* \"#utility.yul\":5140:5212   */\n      swap2\n      pop\n        /* \"#utility.yul\":5096:5222   */\n      pop\n        /* \"#utility.yul\":4882:5229   */\n      swap3\n      swap2\n      pop\n      pop\n      jump\t// out\n        /* \"#utility.yul\":5235:5337   */\n    tag_69:\n        /* \"#utility.yul\":5277:5285   */\n      0x00\n        /* \"#utility.yul\":5324:5329   */\n      dup2\n        /* \"#utility.yul\":5321:5322   */\n      0x01\n        /* \"#utility.yul\":5317:5330   */\n      shr\n        /* \"#utility.yul\":5296:5330   */\n      swap1\n      pop\n        /* \"#utility.yul\":5235:5337   */\n      swap2\n      swap1\n      pop\n      jump\t// out\n        /* \"#utility.yul\":5343:6191   */\n    tag_70:\n        /* \"#utility.yul\":5404:5409   */\n      0x00\n        /* \"#utility.yul\":5411:5415   */\n      dup1\n        /* \"#utility.yul\":5435:5441   */\n      dup3\n        /* \"#utility.yul\":5426:5441   */\n      swap2\n      pop\n        /* \"#utility.yul\":5459:5464   */\n      dup4\n        /* \"#utility.yul\":5450:5464   */\n      swap1\n      pop\n        /* \"#utility.yul\":5473:6185   */\n    tag_140:\n        /* \"#utility.yul\":5494:5495   */\n      0x01\n        /* \"#utility.yul\":5484:5492   */\n      dup6\n        /* \"#utility.yul\":5481:5496   */\n      gt\n        /* \"#utility.yul\":5473:6185   */\n      iszero\n      tag_142\n      jumpi\n        /* \"#utility.yul\":5589:5593   */\n      dup1\n        /* \"#utility.yul\":5584:5587   */\n      dup7\n        /* \"#utility.yul\":5580:5594   */\n      div\n        /* \"#utility.yul\":5574:5578   */\n      dup2\n        /* \"#utility.yul\":5571:5595   */\n      gt\n        /* \"#utility.yul\":5568:5618   */\n      iszero\n      tag_143\n      jumpi\n        /* \"#utility.yul\":5598:5616   */\n      tag_144\n      tag_62\n      jump\t// in\n    tag_144:\n        /* \"#utility.yul\":5568:5618   */\n    tag_143:\n        /* \"#utility.yul\":5648:5649   */\n      0x01\n        /* \"#utility.yul\":5638:5646   */\n      dup6\n        /* \"#utility.yul\":5634:5650   */\n      and\n        /* \"#utility.yul\":5631:6082   */\n      iszero\n      tag_145\n      jumpi\n        /* \"#utility.yul\":6063:6067   */\n      dup1\n        /* \"#utility.yul\":6056:6061   */\n      dup3\n        /* \"#utility.yul\":6052:6068   */\n      mul\n        /* \"#utility.yul\":6043:6068   */\n      swap2\n      pop\n        /* \"#utility.yul\":5631:6082   */\n    tag_145:\n        /* \"#utility.yul\":6113:6117   */\n      dup1\n        /* \"#utility.yul\":6107:6111   */\n      dup2\n        /* \"#utility.yul\":6103:6118   */\n      mul\n        /* \"#utility.yul\":6095:6118   */\n      swap1\n      pop\n        /* \"#utility.yul\":6143:6175   */\n      tag_146\n        /* \"#utility.yul\":6166:6174   */\n      dup6\n        /* \"#utility.yul\":6143:6175   */\n      tag_69\n      jump\t// in\n    tag_146:\n        /* \"#utility.yul\":6131:6175   */\n      swap5\n      pop\n        /* \"#utility.yul\":5473:6185   */\n      jump(tag_140)\n    tag_142:\n        /* \"#utility.yul\":5343:6191   */\n      swap5\n      pop\n      swap5\n      swap3\n      pop\n      pop\n      pop\n      jump\t// out\n        /* \"#utility.yul\":6197:7270   */\n    tag_71:\n        /* \"#utility.yul\":6251:6256   */\n      0x00\n        /* \"#utility.yul\":6442:6450   */\n      dup3\n        /* \"#utility.yul\":6432:6472   */\n      tag_148\n      jumpi\n        /* \"#utility.yul\":6463:6464   */\n      0x01\n        /* \"#utility.yul\":6454:6464   */\n      swap1\n      pop\n        /* \"#utility.yul\":6465:6470   */\n      jump(tag_147)\n        /* \"#utility.yul\":6432:6472   */\n    tag_148:\n        /* \"#utility.yul\":6491:6495   */\n      dup2\n        /* \"#utility.yul\":6481:6517   */\n      tag_149\n      jumpi\n        /* \"#utility.yul\":6508:6509   */\n      0x00\n        /* \"#utility.yul\":6499:6509   */\n      swap1\n      pop\n        /* \"#utility.yul\":6510:6515   */\n      jump(tag_147)\n        /* \"#utility.yul\":6481:6517   */\n    tag_149:\n        /* \"#utility.yul\":6577:6581   */\n      dup2\n        /* \"#utility.yul\":6625:6626   */\n      0x01\n        /* \"#utility.yul\":6620:6647   */\n      dup2\n      eq\n      tag_151\n      jumpi\n        /* \"#utility.yul\":6661:6662   */\n      0x02\n        /* \"#utility.yul\":6656:6847   */\n      dup2\n      eq\n      tag_152\n      jumpi\n        /* \"#utility.yul\":6570:6847   */\n      jump(tag_150)\n        /* \"#utility.yul\":6620:6647   */\n    tag_151:\n        /* \"#utility.yul\":6638:6639   */\n      0x01\n        /* \"#utility.yul\":6629:6639   */\n      swap2\n      pop\n        /* \"#utility.yul\":6640:6645   */\n      pop\n      jump(tag_147)\n        /* \"#utility.yul\":6656:6847   */\n    tag_152:\n        /* \"#utility.yul\":6701:6704   */\n      0xff\n        /* \"#utility.yul\":6691:6699   */\n      dup5\n        /* \"#utility.yul\":6688:6705   */\n      gt\n        /* \"#utility.yul\":6685:6728   */\n      iszero\n      tag_153\n      jumpi\n        /* \"#utility.yul\":6708:6726   */\n      tag_154\n      tag_62\n      jump\t// in\n    tag_154:\n        /* \"#utility.yul\":6685:6728   */\n    tag_153:\n        /* \"#utility.yul\":6757:6765   */\n      dup4\n        /* \"#utility.yul\":6754:6755   */\n      0x02\n        /* \"#utility.yul\":6750:6766   */\n      exp\n        /* \"#utility.yul\":6741:6766   */\n      swap2\n      pop\n        /* \"#utility.yul\":6792:6795   */\n      dup5\n        /* \"#utility.yul\":6785:6790   */\n      dup3\n        /* \"#utility.yul\":6782:6796   */\n      gt\n        /* \"#utility.yul\":6779:6819   */\n      iszero\n      tag_155\n      jumpi\n        /* \"#utility.yul\":6799:6817   */\n      tag_156\n      tag_62\n      jump\t// in\n    tag_156:\n        /* \"#utility.yul\":6779:6819   */\n    tag_155:\n        /* \"#utility.yul\":6832:6837   */\n      pop\n      jump(tag_147)\n        /* \"#utility.yul\":6570:6847   */\n    tag_150:\n      pop\n        /* \"#utility.yul\":6956:6958   */\n      0x20\n        /* \"#utility.yul\":6946:6954   */\n      dup4\n        /* \"#utility.yul\":6943:6959   */\n      lt\n        /* \"#utility.yul\":6937:6940   */\n      0x0133\n        /* \"#utility.yul\":6931:6935   */\n      dup4\n        /* \"#utility.yul\":6928:6941   */\n      lt\n        /* \"#utility.yul\":6924:6960   */\n      and\n        /* \"#utility.yul\":6906:6908   */\n      0x4e\n        /* \"#utility.yul\":6896:6904   */\n      dup5\n        /* \"#utility.yul\":6893:6909   */\n      lt\n        /* \"#utility.yul\":6888:6890   */\n      0x0b\n        /* \"#utility.yul\":6882:6886   */\n      dup5\n        /* \"#utility.yul\":6879:6891   */\n      lt\n        /* \"#utility.yul\":6875:6910   */\n      and\n        /* \"#utility.yul\":6859:6970   */\n      or\n        /* \"#utility.yul\":6856:7102   */\n      iszero\n      tag_157\n      jumpi\n        /* \"#utility.yul\":7012:7020   */\n      dup3\n        /* \"#utility.yul\":7006:7010   */\n      dup3\n        /* \"#utility.yul\":7002:7021   */\n      exp\n        /* \"#utility.yul\":6993:7021   */\n      swap1\n      pop\n        /* \"#utility.yul\":7047:7050   */\n      dup4\n        /* \"#utility.yul\":7040:7045   */\n      dup2\n        /* \"#utility.yul\":7037:7051   */\n      gt\n        /* \"#utility.yul\":7034:7074   */\n      iszero\n      tag_158\n      jumpi\n        /* \"#utility.yul\":7054:7072   */\n      tag_159\n      tag_62\n      jump\t// in\n    tag_159:\n        /* \"#utility.yul\":7034:7074   */\n    tag_158:\n        /* \"#utility.yul\":7087:7092   */\n      jump(tag_147)\n        /* \"#utility.yul\":6856:7102   */\n    tag_157:\n        /* \"#utility.yul\":7127:7169   */\n      tag_160\n        /* \"#utility.yul\":7165:7168   */\n      dup5\n        /* \"#utility.yul\":7155:7163   */\n      dup5\n        /* \"#utility.yul\":7149:7153   */\n      dup5\n        /* \"#utility.yul\":7146:7147   */\n      0x01\n        /* \"#utility.yul\":7127:7169   */\n      tag_70\n      jump\t// in\n    tag_160:\n        /* \"#utility.yul\":7112:7169   */\n      swap3\n      pop\n      swap1\n      pop\n        /* \"#utility.yul\":7201:7205   */\n      dup2\n        /* \"#utility.yul\":7196:7199   */\n      dup5\n        /* \"#utility.yul\":7192:7206   */\n      div\n        /* \"#utility.yul\":7185:7190   */\n      dup2\n        /* \"#utility.yul\":7182:7207   */\n      gt\n        /* \"#utility.yul\":7179:7230   */\n      iszero\n      tag_161\n      jumpi\n        /* \"#utility.yul\":7210:7228   */\n      tag_162\n      tag_62\n      jump\t// in\n    tag_162:\n        /* \"#utility.yul\":7179:7230   */\n    tag_161:\n        /* \"#utility.yul\":7259:7263   */\n      dup2\n        /* \"#utility.yul\":7252:7257   */\n      dup2\n        /* \"#utility.yul\":7248:7264   */\n      mul\n        /* \"#utility.yul\":7239:7264   */\n      swap1\n      pop\n        /* \"#utility.yul\":6197:7270   */\n    tag_147:\n      swap4\n      swap3\n      pop\n      pop\n      pop\n      jump\t// out\n        /* \"#utility.yul\":7276:7557   */\n    tag_38:\n        /* \"#utility.yul\":7334:7339   */\n      0x00\n        /* \"#utility.yul\":7358:7381   */\n      tag_164\n        /* \"#utility.yul\":7376:7380   */\n      dup3\n        /* \"#utility.yul\":7358:7381   */\n      tag_48\n      jump\t// in\n    tag_164:\n        /* \"#utility.yul\":7350:7381   */\n      swap2\n      pop\n        /* \"#utility.yul\":7402:7427   */\n      tag_165\n        /* \"#utility.yul\":7418:7426   */\n      dup4\n        /* \"#utility.yul\":7402:7427   */\n      tag_66\n      jump\t// in\n    tag_165:\n        /* \"#utility.yul\":7390:7427   */\n      swap3\n      pop\n        /* \"#utility.yul\":7446:7550   */\n      tag_166\n        /* \"#utility.yul\":7483:7549   */\n      0xffffffffffffffffffffffffffffffffffffffffffffffffffffffffffffffff\n        /* \"#utility.yul\":7473:7481   */\n      dup5\n        /* \"#utility.yul\":7467:7471   */\n      dup5\n        /* \"#utility.yul\":7446:7550   */\n      tag_71\n      jump\t// in\n    tag_166:\n        /* \"#utility.yul\":7437:7550   */\n      swap1\n      pop\n        /* \"#utility.yul\":7276:7557   */\n      swap3\n      swap2\n      pop\n      pop\n      jump\t// out\n        /* \"#utility.yul\":7563:8005   */\n    tag_41:\n        /* \"#utility.yul\":7712:7716   */\n      0x00\n        /* \"#utility.yul\":7750:7752   */\n      0x60\n        /* \"#utility.yul\":7739:7748   */\n      dup3\n        /* \"#utility.yul\":7735:7753   */\n      add\n        /* \"#utility.yul\":7727:7753   */\n      swap1\n      pop\n        /* \"#utility.yul\":7763:7834   */\n      tag_168\n        /* \"#utility.yul\":7831:7832   */\n      0x00\n        /* \"#utility.yul\":7820:7829   */\n      dup4\n        /* \"#utility.yul\":7816:7833   */\n      add\n        /* \"#utility.yul\":7807:7813   */\n      dup7\n        /* \"#utility.yul\":7763:7834   */\n      tag_52\n      jump\t// in\n    tag_168:\n        /* \"#utility.yul\":7844:7916   */\n      tag_169\n        /* \"#utility.yul\":7912:7914   */\n      0x20\n        /* \"#utility.yul\":7901:7910   */\n      dup4\n        /* \"#utility.yul\":7897:7915   */\n      add\n        /* \"#utility.yul\":7888:7894   */\n      dup6\n        /* \"#utility.yul\":7844:7916   */\n      tag_52\n      jump\t// in\n    tag_169:\n        /* \"#utility.yul\":7926:7998   */\n      tag_170\n        /* \"#utility.yul\":7994:7996   */\n      0x40\n        /* \"#utility.yul\":7983:7992   */\n      dup4\n        /* \"#utility.yul\":7979:7997   */\n      add\n        /* \"#utility.yul\":7970:7976   */\n      dup5\n        /* \"#utility.yul\":7926:7998   */\n      tag_49\n      jump\t// in\n    tag_170:\n        /* \"#utility.yul\":7563:8005   */\n      swap5\n      swap4\n      pop\n      pop\n      pop\n      pop\n      jump\t// out\n        /* \"#utility.yul\":8011:8101   */\n    tag_72:\n        /* \"#utility.yul\":8045:8052   */\n      0x00\n        /* \"#utility.yul\":8088:8093   */\n      dup2\n        /* \"#utility.yul\":8081:8094   */\n      iszero\n        /* \"#utility.yul\":8074:8095   */\n      iszero\n        /* \"#utility.yul\":8063:8095   */\n      swap1\n      pop\n        /* \"#utility.yul\":8011:8101   */\n      swap2\n      swap1\n      pop\n      jump\t// out\n        /* \"#utility.yul\":8107:8223   */\n    tag_73:\n        /* \"#utility.yul\":8177:8198   */\n      tag_173\n        /* \"#utility.yul\":8192:8197   */\n      dup2\n        /* \"#utility.yul\":8177:8198   */\n      tag_72\n      jump\t// in\n    tag_173:\n        /* \"#utility.yul\":8170:8175   */\n      dup2\n        /* \"#utility.yul\":8167:8199   */\n      eq\n        /* \"#utility.yul\":8157:8217   */\n      tag_174\n      jumpi\n        /* \"#utility.yul\":8213:8214   */\n      0x00\n        /* \"#utility.yul\":8210:8211   */\n      dup1\n        /* \"#utility.yul\":8203:8215   */\n      revert\n        /* \"#utility.yul\":8157:8217   */\n    tag_174:\n        /* \"#utility.yul\":8107:8223   */\n      pop\n      jump\t// out\n        /* \"#utility.yul\":8229:8366   */\n    tag_74:\n        /* \"#utility.yul\":8283:8288   */\n      0x00\n        /* \"#utility.yul\":8314:8320   */\n      dup2\n        /* \"#utility.yul\":8308:8321   */\n      mload\n        /* \"#utility.yul\":8299:8321   */\n      swap1\n      pop\n        /* \"#utility.yul\":8330:8360   */\n      tag_176\n        /* \"#utility.yul\":8354:8359   */\n      dup2\n        /* \"#utility.yul\":8330:8360   */\n      tag_73\n      jump\t// in\n    tag_176:\n        /* \"#utility.yul\":8229:8366   */\n      swap3\n      swap2\n      pop\n      pop\n      jump\t// out\n        /* \"#utility.yul\":8372:8717   */\n    tag_45:\n        /* \"#utility.yul\":8439:8445   */\n      0x00\n        /* \"#utility.yul\":8488:8490   */\n      0x20\n        /* \"#utility.yul\":8476:8485   */\n      dup3\n        /* \"#utility.yul\":8467:8474   */\n      dup5\n        /* \"#utility.yul\":8463:8486   */\n      sub\n        /* \"#utility.yul\":8459:8491   */\n      slt\n        /* \"#utility.yul\":8456:8575   */\n      iszero\n      tag_178\n      jumpi\n        /* \"#utility.yul\":8494:8573   */\n      tag_179\n      tag_64\n      jump\t// in\n    tag_179:\n        /* \"#utility.yul\":8456:8575   */\n    tag_178:\n        /* \"#utility.yul\":8614:8615   */\n      0x00\n        /* \"#utility.yul\":8639:8700   */\n      tag_180\n        /* \"#utility.yul\":8692:8699   */\n      dup5\n        /* \"#utility.yul\":8683:8689   */\n      dup3\n        /* \"#utility.yul\":8672:8681   */\n      dup6\n        /* \"#utility.yul\":8668:8690   */\n      add\n        /* \"#utility.yul\":8639:8700   */\n      tag_74\n      jump\t// in\n    tag_180:\n        /* \"#utility.yul\":8629:8700   */\n      swap2\n      pop\n        /* \"#utility.yul\":8585:8710   */\n      pop\n        /* \"#utility.yul\":8372:8717   */\n      swap3\n      swap2\n      pop\n      pop\n      jump\t// out\n\n    auxdata: 0xa26469706673582212203ed0bbe339bbff4b0332ee7ed06790f1ce0a29152d6f6f7e2b3a9ef27d98f55a64736f6c634300080f0033\n}\n",
				"bytecode": {
					"linkReferences": {},
					"object": "608060405234801561001057600080fd5b50604051610a02380380610a028339818101604052810190610032919061011d565b33600260006101000a81548173ffffffffffffffffffffffffffffffffffffffff021916908373ffffffffffffffffffffffffffffffffffffffff16021790555080600160006101000a81548173ffffffffffffffffffffffffffffffffffffffff021916908373ffffffffffffffffffffffffffffffffffffffff1602179055505061014a565b600080fd5b600073ffffffffffffffffffffffffffffffffffffffff82169050919050565b60006100ea826100bf565b9050919050565b6100fa816100df565b811461010557600080fd5b50565b600081519050610117816100f1565b92915050565b600060208284031215610133576101326100ba565b5b600061014184828501610108565b91505092915050565b6108a9806101596000396000f3fe60806040526004361061003f5760003560e01c80630f1f0c98146100445780632f8de8101461004e578063a3e6761014610079578063fc0c546a146100a4575b600080fd5b61004c6100cf565b005b34801561005a57600080fd5b506100636102f8565b6040516100709190610363565b60405180910390f35b34801561008557600080fd5b5061008e6102fe565b60405161009b91906103bf565b60405180910390f35b3480156100b057600080fd5b506100b9610324565b6040516100c69190610439565b60405180910390f35b600054341015610114576040517f08c379a000000000000000000000000000000000000000000000000000000000815260040161010b906104b1565b60405180910390fd5b6000805434610123919061052f565b905060008054826101349190610560565b3461013f91906105ba565b9050600160009054906101000a900473ffffffffffffffffffffffffffffffffffffffff1673ffffffffffffffffffffffffffffffffffffffff166323b872dd600260009054906101000a900473ffffffffffffffffffffffffffffffffffffffff1633600160009054906101000a900473ffffffffffffffffffffffffffffffffffffffff1673ffffffffffffffffffffffffffffffffffffffff1663313ce5676040518163ffffffff1660e01b8152600401602060405180830381865afa158015610210573d6000803e3d6000fd5b505050506040513d601f19601f82011682018060405250810190610234919061062c565b600a610240919061078c565b8661024b9190610560565b6040518463ffffffff1660e01b8152600401610269939291906107d7565b6020604051808303816000875af1158015610288573d6000803e3d6000fd5b505050506040513d601f19601f820116820180604052508101906102ac9190610846565b503373ffffffffffffffffffffffffffffffffffffffff166108fc829081150290604051600060405180830381858888f193505050501580156102f3573d6000803e3d6000fd5b505050565b60005481565b600260009054906101000a900473ffffffffffffffffffffffffffffffffffffffff1681565b600160009054906101000a900473ffffffffffffffffffffffffffffffffffffffff1681565b6000819050919050565b61035d8161034a565b82525050565b60006020820190506103786000830184610354565b92915050565b600073ffffffffffffffffffffffffffffffffffffffff82169050919050565b60006103a98261037e565b9050919050565b6103b98161039e565b82525050565b60006020820190506103d460008301846103b0565b92915050565b6000819050919050565b60006103ff6103fa6103f58461037e565b6103da565b61037e565b9050919050565b6000610411826103e4565b9050919050565b600061042382610406565b9050919050565b61043381610418565b82525050565b600060208201905061044e600083018461042a565b92915050565b600082825260208201905092915050565b7f4e6f7420656e6f756867206d6f6e65792073656e740000000000000000000000600082015250565b600061049b601583610454565b91506104a682610465565b602082019050919050565b600060208201905081810360008301526104ca8161048e565b9050919050565b7f4e487b7100000000000000000000000000000000000000000000000000000000600052601260045260246000fd5b7f4e487b7100000000000000000000000000000000000000000000000000000000600052601160045260246000fd5b600061053a8261034a565b91506105458361034a565b925082610555576105546104d1565b5b828204905092915050565b600061056b8261034a565b91506105768361034a565b9250817fffffffffffffffffffffffffffffffffffffffffffffffffffffffffffffffff04831182151516156105af576105ae610500565b5b828202905092915050565b60006105c58261034a565b91506105d08361034a565b9250828210156105e3576105e2610500565b5b828203905092915050565b600080fd5b600060ff82169050919050565b610609816105f3565b811461061457600080fd5b50565b60008151905061062681610600565b92915050565b600060208284031215610642576106416105ee565b5b600061065084828501610617565b91505092915050565b60008160011c9050919050565b6000808291508390505b60018511156106b05780860481111561068c5761068b610500565b5b600185161561069b5780820291505b80810290506106a985610659565b9450610670565b94509492505050565b6000826106c95760019050610785565b816106d75760009050610785565b81600181146106ed57600281146106f757610726565b6001915050610785565b60ff84111561070957610708610500565b5b8360020a9150848211156107205761071f610500565b5b50610785565b5060208310610133831016604e8410600b841016171561075b5782820a90508381111561075657610755610500565b5b610785565b6107688484846001610666565b9250905081840481111561077f5761077e610500565b5b81810290505b9392505050565b60006107978261034a565b91506107a2836105f3565b92506107cf7fffffffffffffffffffffffffffffffffffffffffffffffffffffffffffffffff84846106b9565b905092915050565b60006060820190506107ec60008301866103b0565b6107f960208301856103b0565b6108066040830184610354565b949350505050565b60008115159050919050565b6108238161080e565b811461082e57600080fd5b50565b6000815190506108408161081a565b92915050565b60006020828403121561085c5761085b6105ee565b5b600061086a84828501610831565b9150509291505056fea26469706673582212203ed0bbe339bbff4b0332ee7ed06790f1ce0a29152d6f6f7e2b3a9ef27d98f55a64736f6c634300080f0033",
					"opcodes": "PUSH1 0x80 PUSH1 0x40 MSTORE CALLVALUE DUP1 ISZERO PUSH2 0x10 JUMPI PUSH1 0x0 DUP1 REVERT JUMPDEST POP PUSH1 0x40 MLOAD PUSH2 0xA02 CODESIZE SUB DUP1 PUSH2 0xA02 DUP4 CODECOPY DUP2 DUP2 ADD PUSH1 0x40 MSTORE DUP2 ADD SWAP1 PUSH2 0x32 SWAP2 SWAP1 PUSH2 0x11D JUMP JUMPDEST CALLER PUSH1 0x2 PUSH1 0x0 PUSH2 0x100 EXP DUP2 SLOAD DUP2 PUSH20 0xFFFFFFFFFFFFFFFFFFFFFFFFFFFFFFFFFFFFFFFF MUL NOT AND SWAP1 DUP4 PUSH20 0xFFFFFFFFFFFFFFFFFFFFFFFFFFFFFFFFFFFFFFFF AND MUL OR SWAP1 SSTORE POP DUP1 PUSH1 0x1 PUSH1 0x0 PUSH2 0x100 EXP DUP2 SLOAD DUP2 PUSH20 0xFFFFFFFFFFFFFFFFFFFFFFFFFFFFFFFFFFFFFFFF MUL NOT AND SWAP1 DUP4 PUSH20 0xFFFFFFFFFFFFFFFFFFFFFFFFFFFFFFFFFFFFFFFF AND MUL OR SWAP1 SSTORE POP POP PUSH2 0x14A JUMP JUMPDEST PUSH1 0x0 DUP1 REVERT JUMPDEST PUSH1 0x0 PUSH20 0xFFFFFFFFFFFFFFFFFFFFFFFFFFFFFFFFFFFFFFFF DUP3 AND SWAP1 POP SWAP2 SWAP1 POP JUMP JUMPDEST PUSH1 0x0 PUSH2 0xEA DUP3 PUSH2 0xBF JUMP JUMPDEST SWAP1 POP SWAP2 SWAP1 POP JUMP JUMPDEST PUSH2 0xFA DUP2 PUSH2 0xDF JUMP JUMPDEST DUP2 EQ PUSH2 0x105 JUMPI PUSH1 0x0 DUP1 REVERT JUMPDEST POP JUMP JUMPDEST PUSH1 0x0 DUP2 MLOAD SWAP1 POP PUSH2 0x117 DUP2 PUSH2 0xF1 JUMP JUMPDEST SWAP3 SWAP2 POP POP JUMP JUMPDEST PUSH1 0x0 PUSH1 0x20 DUP3 DUP5 SUB SLT ISZERO PUSH2 0x133 JUMPI PUSH2 0x132 PUSH2 0xBA JUMP JUMPDEST JUMPDEST PUSH1 0x0 PUSH2 0x141 DUP5 DUP3 DUP6 ADD PUSH2 0x108 JUMP JUMPDEST SWAP2 POP POP SWAP3 SWAP2 POP POP JUMP JUMPDEST PUSH2 0x8A9 DUP1 PUSH2 0x159 PUSH1 0x0 CODECOPY PUSH1 0x0 RETURN INVALID PUSH1 0x80 PUSH1 0x40 MSTORE PUSH1 0x4 CALLDATASIZE LT PUSH2 0x3F JUMPI PUSH1 0x0 CALLDATALOAD PUSH1 0xE0 SHR DUP1 PUSH4 0xF1F0C98 EQ PUSH2 0x44 JUMPI DUP1 PUSH4 0x2F8DE810 EQ PUSH2 0x4E JUMPI DUP1 PUSH4 0xA3E67610 EQ PUSH2 0x79 JUMPI DUP1 PUSH4 0xFC0C546A EQ PUSH2 0xA4 JUMPI JUMPDEST PUSH1 0x0 DUP1 REVERT JUMPDEST PUSH2 0x4C PUSH2 0xCF JUMP JUMPDEST STOP JUMPDEST CALLVALUE DUP1 ISZERO PUSH2 0x5A JUMPI PUSH1 0x0 DUP1 REVERT JUMPDEST POP PUSH2 0x63 PUSH2 0x2F8 JUMP JUMPDEST PUSH1 0x40 MLOAD PUSH2 0x70 SWAP2 SWAP1 PUSH2 0x363 JUMP JUMPDEST PUSH1 0x40 MLOAD DUP1 SWAP2 SUB SWAP1 RETURN JUMPDEST CALLVALUE DUP1 ISZERO PUSH2 0x85 JUMPI PUSH1 0x0 DUP1 REVERT JUMPDEST POP PUSH2 0x8E PUSH2 0x2FE JUMP JUMPDEST PUSH1 0x40 MLOAD PUSH2 0x9B SWAP2 SWAP1 PUSH2 0x3BF JUMP JUMPDEST PUSH1 0x40 MLOAD DUP1 SWAP2 SUB SWAP1 RETURN JUMPDEST CALLVALUE DUP1 ISZERO PUSH2 0xB0 JUMPI PUSH1 0x0 DUP1 REVERT JUMPDEST POP PUSH2 0xB9 PUSH2 0x324 JUMP JUMPDEST PUSH1 0x40 MLOAD PUSH2 0xC6 SWAP2 SWAP1 PUSH2 0x439 JUMP JUMPDEST PUSH1 0x40 MLOAD DUP1 SWAP2 SUB SWAP1 RETURN JUMPDEST PUSH1 0x0 SLOAD CALLVALUE LT ISZERO PUSH2 0x114 JUMPI PUSH1 0x40 MLOAD PUSH32 0x8C379A000000000000000000000000000000000000000000000000000000000 DUP2 MSTORE PUSH1 0x4 ADD PUSH2 0x10B SWAP1 PUSH2 0x4B1 JUMP JUMPDEST PUSH1 0x40 MLOAD DUP1 SWAP2 SUB SWAP1 REVERT JUMPDEST PUSH1 0x0 DUP1 SLOAD CALLVALUE PUSH2 0x123 SWAP2 SWAP1 PUSH2 0x52F JUMP JUMPDEST SWAP1 POP PUSH1 0x0 DUP1 SLOAD DUP3 PUSH2 0x134 SWAP2 SWAP1 PUSH2 0x560 JUMP JUMPDEST CALLVALUE PUSH2 0x13F SWAP2 SWAP1 PUSH2 0x5BA JUMP JUMPDEST SWAP1 POP PUSH1 0x1 PUSH1 0x0 SWAP1 SLOAD SWAP1 PUSH2 0x100 EXP SWAP1 DIV PUSH20 0xFFFFFFFFFFFFFFFFFFFFFFFFFFFFFFFFFFFFFFFF AND PUSH20 0xFFFFFFFFFFFFFFFFFFFFFFFFFFFFFFFFFFFFFFFF AND PUSH4 0x23B872DD PUSH1 0x2 PUSH1 0x0 SWAP1 SLOAD SWAP1 PUSH2 0x100 EXP SWAP1 DIV PUSH20 0xFFFFFFFFFFFFFFFFFFFFFFFFFFFFFFFFFFFFFFFF AND CALLER PUSH1 0x1 PUSH1 0x0 SWAP1 SLOAD SWAP1 PUSH2 0x100 EXP SWAP1 DIV PUSH20 0xFFFFFFFFFFFFFFFFFFFFFFFFFFFFFFFFFFFFFFFF AND PUSH20 0xFFFFFFFFFFFFFFFFFFFFFFFFFFFFFFFFFFFFFFFF AND PUSH4 0x313CE567 PUSH1 0x40 MLOAD DUP2 PUSH4 0xFFFFFFFF AND PUSH1 0xE0 SHL DUP2 MSTORE PUSH1 0x4 ADD PUSH1 0x20 PUSH1 0x40 MLOAD DUP1 DUP4 SUB DUP2 DUP7 GAS STATICCALL ISZERO DUP1 ISZERO PUSH2 0x210 JUMPI RETURNDATASIZE PUSH1 0x0 DUP1 RETURNDATACOPY RETURNDATASIZE PUSH1 0x0 REVERT JUMPDEST POP POP POP POP PUSH1 0x40 MLOAD RETURNDATASIZE PUSH1 0x1F NOT PUSH1 0x1F DUP3 ADD AND DUP3 ADD DUP1 PUSH1 0x40 MSTORE POP DUP2 ADD SWAP1 PUSH2 0x234 SWAP2 SWAP1 PUSH2 0x62C JUMP JUMPDEST PUSH1 0xA PUSH2 0x240 SWAP2 SWAP1 PUSH2 0x78C JUMP JUMPDEST DUP7 PUSH2 0x24B SWAP2 SWAP1 PUSH2 0x560 JUMP JUMPDEST PUSH1 0x40 MLOAD DUP5 PUSH4 0xFFFFFFFF AND PUSH1 0xE0 SHL DUP2 MSTORE PUSH1 0x4 ADD PUSH2 0x269 SWAP4 SWAP3 SWAP2 SWAP1 PUSH2 0x7D7 JUMP JUMPDEST PUSH1 0x20 PUSH1 0x40 MLOAD DUP1 DUP4 SUB DUP2 PUSH1 0x0 DUP8 GAS CALL ISZERO DUP1 ISZERO PUSH2 0x288 JUMPI RETURNDATASIZE PUSH1 0x0 DUP1 RETURNDATACOPY RETURNDATASIZE PUSH1 0x0 REVERT JUMPDEST POP POP POP POP PUSH1 0x40 MLOAD RETURNDATASIZE PUSH1 0x1F NOT PUSH1 0x1F DUP3 ADD AND DUP3 ADD DUP1 PUSH1 0x40 MSTORE POP DUP2 ADD SWAP1 PUSH2 0x2AC SWAP2 SWAP1 PUSH2 0x846 JUMP JUMPDEST POP CALLER PUSH20 0xFFFFFFFFFFFFFFFFFFFFFFFFFFFFFFFFFFFFFFFF AND PUSH2 0x8FC DUP3 SWAP1 DUP2 ISZERO MUL SWAP1 PUSH1 0x40 MLOAD PUSH1 0x0 PUSH1 0x40 MLOAD DUP1 DUP4 SUB DUP2 DUP6 DUP9 DUP9 CALL SWAP4 POP POP POP POP ISZERO DUP1 ISZERO PUSH2 0x2F3 JUMPI RETURNDATASIZE PUSH1 0x0 DUP1 RETURNDATACOPY RETURNDATASIZE PUSH1 0x0 REVERT JUMPDEST POP POP POP JUMP JUMPDEST PUSH1 0x0 SLOAD DUP2 JUMP JUMPDEST PUSH1 0x2 PUSH1 0x0 SWAP1 SLOAD SWAP1 PUSH2 0x100 EXP SWAP1 DIV PUSH20 0xFFFFFFFFFFFFFFFFFFFFFFFFFFFFFFFFFFFFFFFF AND DUP2 JUMP JUMPDEST PUSH1 0x1 PUSH1 0x0 SWAP1 SLOAD SWAP1 PUSH2 0x100 EXP SWAP1 DIV PUSH20 0xFFFFFFFFFFFFFFFFFFFFFFFFFFFFFFFFFFFFFFFF AND DUP2 JUMP JUMPDEST PUSH1 0x0 DUP2 SWAP1 POP SWAP2 SWAP1 POP JUMP JUMPDEST PUSH2 0x35D DUP2 PUSH2 0x34A JUMP JUMPDEST DUP3 MSTORE POP POP JUMP JUMPDEST PUSH1 0x0 PUSH1 0x20 DUP3 ADD SWAP1 POP PUSH2 0x378 PUSH1 0x0 DUP4 ADD DUP5 PUSH2 0x354 JUMP JUMPDEST SWAP3 SWAP2 POP POP JUMP JUMPDEST PUSH1 0x0 PUSH20 0xFFFFFFFFFFFFFFFFFFFFFFFFFFFFFFFFFFFFFFFF DUP3 AND SWAP1 POP SWAP2 SWAP1 POP JUMP JUMPDEST PUSH1 0x0 PUSH2 0x3A9 DUP3 PUSH2 0x37E JUMP JUMPDEST SWAP1 POP SWAP2 SWAP1 POP JUMP JUMPDEST PUSH2 0x3B9 DUP2 PUSH2 0x39E JUMP JUMPDEST DUP3 MSTORE POP POP JUMP JUMPDEST PUSH1 0x0 PUSH1 0x20 DUP3 ADD SWAP1 POP PUSH2 0x3D4 PUSH1 0x0 DUP4 ADD DUP5 PUSH2 0x3B0 JUMP JUMPDEST SWAP3 SWAP2 POP POP JUMP JUMPDEST PUSH1 0x0 DUP2 SWAP1 POP SWAP2 SWAP1 POP JUMP JUMPDEST PUSH1 0x0 PUSH2 0x3FF PUSH2 0x3FA PUSH2 0x3F5 DUP5 PUSH2 0x37E JUMP JUMPDEST PUSH2 0x3DA JUMP JUMPDEST PUSH2 0x37E JUMP JUMPDEST SWAP1 POP SWAP2 SWAP1 POP JUMP JUMPDEST PUSH1 0x0 PUSH2 0x411 DUP3 PUSH2 0x3E4 JUMP JUMPDEST SWAP1 POP SWAP2 SWAP1 POP JUMP JUMPDEST PUSH1 0x0 PUSH2 0x423 DUP3 PUSH2 0x406 JUMP JUMPDEST SWAP1 POP SWAP2 SWAP1 POP JUMP JUMPDEST PUSH2 0x433 DUP2 PUSH2 0x418 JUMP JUMPDEST DUP3 MSTORE POP POP JUMP JUMPDEST PUSH1 0x0 PUSH1 0x20 DUP3 ADD SWAP1 POP PUSH2 0x44E PUSH1 0x0 DUP4 ADD DUP5 PUSH2 0x42A JUMP JUMPDEST SWAP3 SWAP2 POP POP JUMP JUMPDEST PUSH1 0x0 DUP3 DUP3 MSTORE PUSH1 0x20 DUP3 ADD SWAP1 POP SWAP3 SWAP2 POP POP JUMP JUMPDEST PUSH32 0x4E6F7420656E6F756867206D6F6E65792073656E740000000000000000000000 PUSH1 0x0 DUP3 ADD MSTORE POP JUMP JUMPDEST PUSH1 0x0 PUSH2 0x49B PUSH1 0x15 DUP4 PUSH2 0x454 JUMP JUMPDEST SWAP2 POP PUSH2 0x4A6 DUP3 PUSH2 0x465 JUMP JUMPDEST PUSH1 0x20 DUP3 ADD SWAP1 POP SWAP2 SWAP1 POP JUMP JUMPDEST PUSH1 0x0 PUSH1 0x20 DUP3 ADD SWAP1 POP DUP2 DUP2 SUB PUSH1 0x0 DUP4 ADD MSTORE PUSH2 0x4CA DUP2 PUSH2 0x48E JUMP JUMPDEST SWAP1 POP SWAP2 SWAP1 POP JUMP JUMPDEST PUSH32 0x4E487B7100000000000000000000000000000000000000000000000000000000 PUSH1 0x0 MSTORE PUSH1 0x12 PUSH1 0x4 MSTORE PUSH1 0x24 PUSH1 0x0 REVERT JUMPDEST PUSH32 0x4E487B7100000000000000000000000000000000000000000000000000000000 PUSH1 0x0 MSTORE PUSH1 0x11 PUSH1 0x4 MSTORE PUSH1 0x24 PUSH1 0x0 REVERT JUMPDEST PUSH1 0x0 PUSH2 0x53A DUP3 PUSH2 0x34A JUMP JUMPDEST SWAP2 POP PUSH2 0x545 DUP4 PUSH2 0x34A JUMP JUMPDEST SWAP3 POP DUP3 PUSH2 0x555 JUMPI PUSH2 0x554 PUSH2 0x4D1 JUMP JUMPDEST JUMPDEST DUP3 DUP3 DIV SWAP1 POP SWAP3 SWAP2 POP POP JUMP JUMPDEST PUSH1 0x0 PUSH2 0x56B DUP3 PUSH2 0x34A JUMP JUMPDEST SWAP2 POP PUSH2 0x576 DUP4 PUSH2 0x34A JUMP JUMPDEST SWAP3 POP DUP2 PUSH32 0xFFFFFFFFFFFFFFFFFFFFFFFFFFFFFFFFFFFFFFFFFFFFFFFFFFFFFFFFFFFFFFFF DIV DUP4 GT DUP3 ISZERO ISZERO AND ISZERO PUSH2 0x5AF JUMPI PUSH2 0x5AE PUSH2 0x500 JUMP JUMPDEST JUMPDEST DUP3 DUP3 MUL SWAP1 POP SWAP3 SWAP2 POP POP JUMP JUMPDEST PUSH1 0x0 PUSH2 0x5C5 DUP3 PUSH2 0x34A JUMP JUMPDEST SWAP2 POP PUSH2 0x5D0 DUP4 PUSH2 0x34A JUMP JUMPDEST SWAP3 POP DUP3 DUP3 LT ISZERO PUSH2 0x5E3 JUMPI PUSH2 0x5E2 PUSH2 0x500 JUMP JUMPDEST JUMPDEST DUP3 DUP3 SUB SWAP1 POP SWAP3 SWAP2 POP POP JUMP JUMPDEST PUSH1 0x0 DUP1 REVERT JUMPDEST PUSH1 0x0 PUSH1 0xFF DUP3 AND SWAP1 POP SWAP2 SWAP1 POP JUMP JUMPDEST PUSH2 0x609 DUP2 PUSH2 0x5F3 JUMP JUMPDEST DUP2 EQ PUSH2 0x614 JUMPI PUSH1 0x0 DUP1 REVERT JUMPDEST POP JUMP JUMPDEST PUSH1 0x0 DUP2 MLOAD SWAP1 POP PUSH2 0x626 DUP2 PUSH2 0x600 JUMP JUMPDEST SWAP3 SWAP2 POP POP JUMP JUMPDEST PUSH1 0x0 PUSH1 0x20 DUP3 DUP5 SUB SLT ISZERO PUSH2 0x642 JUMPI PUSH2 0x641 PUSH2 0x5EE JUMP JUMPDEST JUMPDEST PUSH1 0x0 PUSH2 0x650 DUP5 DUP3 DUP6 ADD PUSH2 0x617 JUMP JUMPDEST SWAP2 POP POP SWAP3 SWAP2 POP POP JUMP JUMPDEST PUSH1 0x0 DUP2 PUSH1 0x1 SHR SWAP1 POP SWAP2 SWAP1 POP JUMP JUMPDEST PUSH1 0x0 DUP1 DUP3 SWAP2 POP DUP4 SWAP1 POP JUMPDEST PUSH1 0x1 DUP6 GT ISZERO PUSH2 0x6B0 JUMPI DUP1 DUP7 DIV DUP2 GT ISZERO PUSH2 0x68C JUMPI PUSH2 0x68B PUSH2 0x500 JUMP JUMPDEST JUMPDEST PUSH1 0x1 DUP6 AND ISZERO PUSH2 0x69B JUMPI DUP1 DUP3 MUL SWAP2 POP JUMPDEST DUP1 DUP2 MUL SWAP1 POP PUSH2 0x6A9 DUP6 PUSH2 0x659 JUMP JUMPDEST SWAP5 POP PUSH2 0x670 JUMP JUMPDEST SWAP5 POP SWAP5 SWAP3 POP POP POP JUMP JUMPDEST PUSH1 0x0 DUP3 PUSH2 0x6C9 JUMPI PUSH1 0x1 SWAP1 POP PUSH2 0x785 JUMP JUMPDEST DUP2 PUSH2 0x6D7 JUMPI PUSH1 0x0 SWAP1 POP PUSH2 0x785 JUMP JUMPDEST DUP2 PUSH1 0x1 DUP2 EQ PUSH2 0x6ED JUMPI PUSH1 0x2 DUP2 EQ PUSH2 0x6F7 JUMPI PUSH2 0x726 JUMP JUMPDEST PUSH1 0x1 SWAP2 POP POP PUSH2 0x785 JUMP JUMPDEST PUSH1 0xFF DUP5 GT ISZERO PUSH2 0x709 JUMPI PUSH2 0x708 PUSH2 0x500 JUMP JUMPDEST JUMPDEST DUP4 PUSH1 0x2 EXP SWAP2 POP DUP5 DUP3 GT ISZERO PUSH2 0x720 JUMPI PUSH2 0x71F PUSH2 0x500 JUMP JUMPDEST JUMPDEST POP PUSH2 0x785 JUMP JUMPDEST POP PUSH1 0x20 DUP4 LT PUSH2 0x133 DUP4 LT AND PUSH1 0x4E DUP5 LT PUSH1 0xB DUP5 LT AND OR ISZERO PUSH2 0x75B JUMPI DUP3 DUP3 EXP SWAP1 POP DUP4 DUP2 GT ISZERO PUSH2 0x756 JUMPI PUSH2 0x755 PUSH2 0x500 JUMP JUMPDEST JUMPDEST PUSH2 0x785 JUMP JUMPDEST PUSH2 0x768 DUP5 DUP5 DUP5 PUSH1 0x1 PUSH2 0x666 JUMP JUMPDEST SWAP3 POP SWAP1 POP DUP2 DUP5 DIV DUP2 GT ISZERO PUSH2 0x77F JUMPI PUSH2 0x77E PUSH2 0x500 JUMP JUMPDEST JUMPDEST DUP2 DUP2 MUL SWAP1 POP JUMPDEST SWAP4 SWAP3 POP POP POP JUMP JUMPDEST PUSH1 0x0 PUSH2 0x797 DUP3 PUSH2 0x34A JUMP JUMPDEST SWAP2 POP PUSH2 0x7A2 DUP4 PUSH2 0x5F3 JUMP JUMPDEST SWAP3 POP PUSH2 0x7CF PUSH32 0xFFFFFFFFFFFFFFFFFFFFFFFFFFFFFFFFFFFFFFFFFFFFFFFFFFFFFFFFFFFFFFFF DUP5 DUP5 PUSH2 0x6B9 JUMP JUMPDEST SWAP1 POP SWAP3 SWAP2 POP POP JUMP JUMPDEST PUSH1 0x0 PUSH1 0x60 DUP3 ADD SWAP1 POP PUSH2 0x7EC PUSH1 0x0 DUP4 ADD DUP7 PUSH2 0x3B0 JUMP JUMPDEST PUSH2 0x7F9 PUSH1 0x20 DUP4 ADD DUP6 PUSH2 0x3B0 JUMP JUMPDEST PUSH2 0x806 PUSH1 0x40 DUP4 ADD DUP5 PUSH2 0x354 JUMP JUMPDEST SWAP5 SWAP4 POP POP POP POP JUMP JUMPDEST PUSH1 0x0 DUP2 ISZERO ISZERO SWAP1 POP SWAP2 SWAP1 POP JUMP JUMPDEST PUSH2 0x823 DUP2 PUSH2 0x80E JUMP JUMPDEST DUP2 EQ PUSH2 0x82E JUMPI PUSH1 0x0 DUP1 REVERT JUMPDEST POP JUMP JUMPDEST PUSH1 0x0 DUP2 MLOAD SWAP1 POP PUSH2 0x840 DUP2 PUSH2 0x81A JUMP JUMPDEST SWAP3 SWAP2 POP POP JUMP JUMPDEST PUSH1 0x0 PUSH1 0x20 DUP3 DUP5 SUB SLT ISZERO PUSH2 0x85C JUMPI PUSH2 0x85B PUSH2 0x5EE JUMP JUMPDEST JUMPDEST PUSH1 0x0 PUSH2 0x86A DUP5 DUP3 DUP6 ADD PUSH2 0x831 JUMP JUMPDEST SWAP2 POP POP SWAP3 SWAP2 POP POP JUMP INVALID LOG2 PUSH5 0x6970667358 0x22 SLT KECCAK256 RETURNDATACOPY 0xD0 0xBB 0xE3 CODECOPY 0xBB SELFDESTRUCT 0x4B SUB ORIGIN 0xEE PUSH31 0xD06790F1CE0A29152D6F6F7E2B3A9EF27D98F55A64736F6C634300080F0033 "
				},
				"gasEstimates": {
					"creation": {
						"codeDepositCost": "443400",
						"executionCost": "infinite",
						"totalCost": "infinite"
					},
					"external": {
						"purchaseFood()": "infinite",
						"token()": "infinite",
						"tokenOwner()": "2536",
						"tokenPriceInWei()": "2429"
					}
				},
				"methodIdentifiers": {
					"purchaseFood()": "0f1f0c98",
					"token()": "fc0c546a",
					"tokenOwner()": "a3e67610",
					"tokenPriceInWei()": "2f8de810"
				}
			},
			"storageLayout": {
				"storage": [
					{
						"astId": 20,
						"contract": "contracts/TokenSale.sol:TokenSale",
						"label": "tokenPriceInWei",
						"offset": 0,
						"slot": "0",
						"type": "t_uint256"
					},
					{
						"astId": 23,
						"contract": "contracts/TokenSale.sol:TokenSale",
						"label": "token",
						"offset": 0,
						"slot": "1",
						"type": "t_contract(ERC20)18"
					},
					{
						"astId": 25,
						"contract": "contracts/TokenSale.sol:TokenSale",
						"label": "tokenOwner",
						"offset": 0,
						"slot": "2",
						"type": "t_address"
					}
				],
				"types": {
					"t_address": {
						"encoding": "inplace",
						"label": "address",
						"numberOfBytes": "20"
					},
					"t_contract(ERC20)18": {
						"encoding": "inplace",
						"label": "contract ERC20",
						"numberOfBytes": "20"
					},
					"t_uint256": {
						"encoding": "inplace",
						"label": "uint256",
						"numberOfBytes": "32"
					}
				}
			},
			"userdoc": {
				"kind": "user",
				"methods": {},
				"version": 1
			}
		}
	}
}