{
	"data": {
		"bytecode": {
			"linkReferences": {},
			"object": "6080604052348015600f57600080fd5b50608d8061001e6000396000f3fe608060405260043610601f5760003560e01c80638547472814602a576025565b36602557005b600080fd5b348015603557600080fd5b50603c603e565b005b3373ffffffffffffffffffffffffffffffffffffffff16fffea2646970667358221220f7e26dca41c75c0d58fb0ef59869023fc5ac0e8d00374c0bf20ee9854d9b541364736f6c634300080f0033",
			"opcodes": "PUSH1 0x80 PUSH1 0x40 MSTORE CALLVALUE DUP1 ISZERO PUSH1 0xF JUMPI PUSH1 0x0 DUP1 REVERT JUMPDEST POP PUSH1 0x8D DUP1 PUSH2 0x1E PUSH1 0x0 CODECOPY PUSH1 0x0 RETURN INVALID PUSH1 0x80 PUSH1 0x40 MSTORE PUSH1 0x4 CALLDATASIZE LT PUSH1 0x1F JUMPI PUSH1 0x0 CALLDATALOAD PUSH1 0xE0 SHR DUP1 PUSH4 0x85474728 EQ PUSH1 0x2A JUMPI PUSH1 0x25 JUMP JUMPDEST CALLDATASIZE PUSH1 0x25 JUMPI STOP JUMPDEST PUSH1 0x0 DUP1 REVERT JUMPDEST CALLVALUE DUP1 ISZERO PUSH1 0x35 JUMPI PUSH1 0x0 DUP1 REVERT JUMPDEST POP PUSH1 0x3C PUSH1 0x3E JUMP JUMPDEST STOP JUMPDEST CALLER PUSH20 0xFFFFFFFFFFFFFFFFFFFFFFFFFFFFFFFFFFFFFFFF AND SELFDESTRUCT INVALID LOG2 PUSH5 0x6970667358 0x22 SLT KECCAK256 0xF7 0xE2 PUSH14 0xCA41C75C0D58FB0EF59869023FC5 0xAC 0xE DUP14 STOP CALLDATACOPY 0x4C SIGNEXTEND CALLCODE 0xE 0xE9 DUP6 0x4D SWAP12 SLOAD SGT PUSH5 0x736F6C6343 STOP ADDMOD 0xF STOP CALLER "
		},
		"gasEstimates": {
			"creation": {
				"codeDepositCost": "28200",
				"executionCost": "81",
				"totalCost": "28281"
			},
			"external": {
				"destroySmartContract()": "27721"
			}
		},
		"methodIdentifiers": {
			"destroySmartContract()": "85474728"
		}
	},
	"abi": [
		{
			"inputs": [],
			"name": "destroySmartContract",
			"outputs": [],
			"stateMutability": "nonpayable",
			"type": "function"
		},
		{
			"stateMutability": "payable",
			"type": "receive"
		}
	]
}